:020000040800F2
:1000000000000220F50A0108750C00087D0C0008AC
:10001000850C00088D0C0008950C000800000000FD
:1000200000000000000000000000000051E6000891
:100030009D0C000800000000A1E8000839D000086D
:10004000450B0108450B0108450B0108450B01084C
:10005000450B0108450B0108450B0108450B01083C
:10006000450B0108450B0108450B0108450B01082C
:10007000450B0108450B0108450B0108450B01081C
:10008000450B0108450B0108450B01080000000065
:10009000000000000000000000000000450B010807
:1000A000450B0108450B0108AD0C0008450B010884
:1000B000450B0108450B0108450B0108450B0108DC
:1000C000450B0108450B0108450B0108450B0108CC
:1000D000450B0108C90C0008450B01080000000091
:1000E000450B0108450B0108450B01080000000005
:1000F000000000000000000000000000450B0108A7
:1001000000000000450B0108450B0108450B0108E4
:1001100000000000000000000000000000000000DF
:10012000450B0108450B0108DD0C0008450B0108D3
:10013000450B010800000000000000000000000066
:10014000000000000000000000000000F10C0008AA
:10015000450B0108450B0108050D0008450B01087A
:10016000450B0108450B01080000000000000000DD
:10017000000000000000000000000000000000007F
:1001800000000000450B0108000000000000000016
:08019000450B0108450B0108B5
:1001A000034613F8012B002AFBD1181A01387047B7
:1001B00001F0FF01102A2BDB10F0070F08D010F818
:1001C000013B013A8B422DD010F0070F42B3F6D11C
:1001D000F0B441EA012141EA014122F007047FF035
:1001E00000070023F0E80256083C85EA010586EA8C
:1001F000010685FA47F5A3FA87F586FA47F6A5FAC8
:1002000087F68EB9EED1F0BC01F0FF0102F00702D3
:1002100032B110F8013B013A83EA010313B1F8D17E
:100220000020704701387047002D06BF354603385F
:10023000073815F0010F07D1013015F4807F02BF98
:10024000013015F4C03F0130F0BC0138704700BFE9
:1002500053B94AB9002908BF00281CBF4FF0FF312D
:100260004FF0FF3000F00CB8ADF1080C6DE904CE92
:1002700011F066FDDDF804E0DDE9022304B070470B
:10028000704700BF0348044B834202D0034B03B1C5
:10029000184770476403002064030020000000003A
:1002A0000548064B1B1AD90F01EBA301491002D0D8
:1002B000034B03B118477047640300206403002018
:1002C0000000000010B5064C237843B9FFF7DAFFB1
:1002D000044B13B10448AFF300800123237010BD19
:1002E0006403002000000000FC1F010808B5054B56
:1002F0001BB105490548AFF30080BDE80840FFF792
:10030000CFBF00BF0000000068030020FC1F0108F1
:1003100080B500AF024807F0B7F800BF80BD00BF4E
:100320001004002080B400AF034B1B685B6A1846C2
:10033000BD465DF8047B70471004002080B582B094
:1003400000AF784B1B6806F077FD00F065F900F010
:10035000D7FB00F0ADFB00F081FB00F0C5F900F029
:10036000B7FA00F013FA00F001FB00216E4807F025
:10037000A1F904216D4807F09DF90CF077FE6C4A55
:10038000002101200DF05AFA03466A4A13606A4AB6
:10039000002101200DF052FA0346684A1360684AB2
:1003A000002101200DF04AFA0346664A1360664AAE
:1003B000002101200DF042FA0346644A1360644AAA
:1003C000002101200DF03AFA0346624A1360624BA5
:1003D0000022012161480DF06FF80346604A136066
:1003E000604B0022012160480DF066F803465F4A29
:1003F00013605F4B002200215E480DF05DF803465C
:100400005D4A13605D4A042104200DF037FB03466A
:100410005B4A13605B4A042104200DF02FFB034666
:10042000594A1360594A042104200DF027FB034662
:10043000574A1360574A002157480CF061FE0346A3
:10044000564A1360564A002156480CF059FE03469E
:10045000554A1360554A002155480CF051FE034699
:10046000544A1360544A002154480CF049FE034694
:10047000534A1360534A002153480CF041FE03468F
:10048000524A1360524A002152480CF039FE03468A
:10049000514A1360514A002151480CF031FE034685
:1004A000504A1360504A002150480CF029FE034680
:1004B0004F4A13604F4A00214F480CF021FE03467B
:1004C0004E4A13604E4A00214E480CF019FE034676
:1004D0004D4A13604D480DF099F803464C4A13609D
:1004E0000CF0E8FD00237B6014E000224FF4005183
:1004F000484805F089FF192006F0E0FC01224FF47E
:100500000051444805F080FF322006F0D7FC7B689C
:1005100001337B607B68072BE7D94FF4487006F006
:10052000CDFCDFE700000020C803002058040020B5
:10053000E4230108703D0020F4230108C43D00209D
:1005400004240108183E0020142401086C3E0020F9
:1005500024240108C03E0020B4230108A729000874
:10056000E03C0020C4230108E5270008103D0020DE
:10057000D423010855270008403D00206C230108C2
:10058000B43B002084230108183C00209C23010870
:100590007C3C002004220108310C0008A405002046
:1005A00028220108692000080C0800204C220108BC
:1005B000851D0008741000207022010851260008D3
:1005C000DC18002094220108F927000844210020AB
:1005D000B8220108BB290008AC290020DC22010850
:1005E000D52900081432002000230108F52900084D
:1005F0007C34002024230108152A0008E43600205A
:1006000048230108352A00084C3900203424010809
:10061000143F00200008024080B594B000AF07F1FD
:10062000200330220021184610F0D8FC07F10C03FB
:1006300000221A605A609A60DA601A610023BB6077
:10064000274B1B6C264A43F080531364244B1B6CCE
:1006500003F08053BB60BB6800237B60214B1B68A9
:10066000204A43F4404313601E4B1B6803F440438D
:100670007B607B6801233B624FF480337B62022303
:10068000BB634FF48003FB6319233B64C0237B648B
:100690000223BB640423FB6407F12003184605F022
:1006A000A5F80346002B01D000F0DEFA0F23FB6013
:1006B00002233B6100237B614FF48053BB61002325
:1006C000FB6107F10C030321184605F007FB034605
:1006D000002B01D000F0C8FA00BF5037BD4680BDE6
:1006E000003802400070004080B584B000AF3B4647
:1006F00000221A605A609A60DA60214B214A1A601F
:100700001F4B4FF480325A601D4B00229A601C4BE5
:1007100000221A611A4B00221A76194B002283F824
:100720002020174B0022DA62154B174A9A62144BAD
:100730000022DA60124B0122DA61114B002283F8A9
:1007400030200F4B01225A610D4806F0DBFB0346B7
:10075000002B01D000F088FA00233B6001237B606E
:100760000023BB603B461946054806F00FFC0346D4
:10077000002B01D000F078FA00BF1037BD4680BDD5
:1007800080030020002001400100000F80B596B0DA
:1007900000AF07F1480300221A605A609A60DA60DD
:1007A00007F1400300221A605A6007F12403002277
:1007B0001A605A609A60DA601A615A619A613B1D48
:1007C00020220021184610F009FC3F4B3F4A1A60D6
:1007D0003D4B00225A603C4B00229A603A4B42F259
:1007E0007F52DA60384B00221A61374B00225A617F
:1007F000354B00229A61344806F0F6FD0346002B83
:1008000001D000F031FA4FF48053BB6407F1480384
:1008100019462D4807F0C8F90346002B01D000F017
:1008200023FA294806F0ECFE0346002B01D000F025
:100830001BFA00233B6400237B6407F14003194645
:10084000214807F06DFD0346002B01D000F00CFAA3
:1008500060237B6242F27F53BB620023FB62002372
:100860003B6300237B630023BB630023FB6307F12F
:10087000240300221946144807F0D4F80346002B3D
:1008800001D000F0F1F900237B600023BB6000235E
:10089000FB6000233B6100237B614FF40053BB618D
:1008A00000233B623B1D1946074807F0A7FD03469E
:1008B000002B01D000F0D8F9034800F0EFFA00BF98
:1008C0005837BD4680BD00BFC8030020000001406E
:1008D00080B586B000AF07F1080300221A605A60A5
:1008E0009A60DA603B4600221A605A601E4B4FF055
:1008F00080421A601C4B42F27F525A601A4B00220F
:100900009A60194B4FF0FF32DA60174B00221A61E0
:10091000154B00229A61144806F066FD0346002B31
:1009200001D000F0A1F94FF48053BB6007F1080338
:1009300019460D4807F038F90346002B01D000F0A6
:1009400093F900233B6000237B603B461946064831
:1009500007F0E6FC0346002B01D000F085F900BF4C
:100960001837BD4680BD00BF1004002080B58EB092
:1009700000AF07F1280300221A605A609A60DA601B
:1009800007F1200300221A605A603B1D00221A6002
:100990005A609A60DA601A615A619A612D4B2E4A48
:1009A0001A602C4B00225A602A4B00229A60294B75
:1009B00042F27F52DA60274B00221A61254B002257
:1009C0009A61244806F010FD0346002B01D000F088
:1009D0004BF94FF48053BB6207F1280319461D48B9
:1009E00007F0E2F80346002B01D000F03DF919486A
:1009F00006F006FE0346002B01D000F035F9002377
:100A00003B6200237B6207F120031946114807F07F
:100A100087FC0346002B01D000F026F960237B60A1
:100A200042F27F53BB600023FB6000237B613B1DD0
:100A300004221946074806F0F5FF0346002B01D0B3
:100A400000F012F9034800F029FA00BF3837BD461C
:100A500080BD00BF580400200004004080B500AFF6
:100A6000114B124A1A60104B4FF416525A600E4B3B
:100A700000229A600C4B0022DA600B4B00221A61B4
:100A8000094B0C225A61084B00229A61064B002246
:100A9000DA61054807F018FD0346002B01D000F08D
:100AA000E3F800BF80BD00BFA0040020001001409B
:100AB00080B582B000AF00237B60104B1B6B0F4AE8
:100AC00043F4800313630D4B1B6B03F480037B60C3
:100AD0007B68002205213A2006F084F93A2006F0CE
:100AE0009DF900220521462006F07CF9462006F0FB
:100AF00095F900BF0837BD4680BD00BF00380240F1
:100B000080B58AB000AF07F1140300221A605A6062
:100B10009A60DA601A6100233B61414B1B6B404ACB
:100B200043F0040313633E4B1B6B03F004033B6170
:100B30003B690023FB603A4B1B6B394A43F080034F
:100B40001363374B1B6B03F08003FB60FB680023D0
:100B5000BB60334B1B6B324A43F001031363304BD2
:100B60001B6B03F00103BB60BB6800237B602C4B55
:100B70001B6B2B4A43F002031363294B1B6B03F0DF
:100B800002037B607B6800224FF40051254805F08A
:100B90003BFC00221E21244805F036FC01224021A6
:100BA000214805F031FC002242F204011F4805F003
:100BB0002BFC01224FF480511C4805F025FC4FF41A
:100BC00000537B610123BB610023FB6100233B6277
:100BD00007F114031946134805F092FA5E237B616E
:100BE0000123BB610023FB6100233B6207F1140377
:100BF00019460D4805F084FA43F204037B61012392
:100C0000BB610023FB6100233B6207F1140319461B
:100C1000064805F075FA00BF2837BD4680BD00BF05
:100C20000038024000080240000002400004024078
:100C300080B582B000AF786000F0CCFA01200CF0F3
:100C40000AFCFBE780B582B000AF78607B681B6868
:100C5000044A934201D106F011F900BF0837BD469E
:100C600080BD00BF0048014080B400AF72B600BF35
:100C700000BFFDE780B400AF00BFFDE780B400AF68
:100C800000BFFDE780B400AF00BFFDE780B400AF58
:100C900000BFFDE780B400AF00BFFDE780B400AF48
:100CA00000BFBD465DF8047B7047000080B500AF13
:100CB000034806F0AFFD034806F0ACFD00BF80BD61
:100CC000C8030020383F002080B500AF024807F07D
:100CD0002DFD00BF80BD00BFA004002080B500AF87
:100CE000024805F05DFD00BF80BD00BFE4040020A8
:100CF00080B500AF024801F0FDFF00BF80BD00BF1E
:100D00005C54002080B500AF024805F049FD00BFEB
:100D100080BD00BF4405002080B582B000AF002335
:100D20007B60124B5B6C114A43F4804353640F4B5E
:100D30005B6C03F480437B607B6800233B600B4B60
:100D40001B6C0A4A43F080531364084B1B6C03F07E
:100D500080533B603B6800220F216FF0010006F0DA
:100D600041F800BF0837BD4680BD00BF00380240D3
:100D700080B58AB000AF786007F1140300221A60D2
:100D80005A609A60DA601A617B681B68174A93425E
:100D900027D100233B61164B5B6C154A43F48073EB
:100DA0005364134B5B6C03F480733B613B6900231A
:100DB000FB600F4B1B6B0E4A43F0010313630C4B9C
:100DC0001B6B03F00103FB60FB6801237B610323C2
:100DD000BB610023FB6107F114031946054805F0C8
:100DE0008FF900BF2837BD4680BD00BF00200140FD
:100DF000003802400000024080B586B000AF786045
:100E00007B681B68224A934216D100237B61214BE9
:100E10005B6C204A43F0010353641E4B5B6C03F090
:100E200001037B617B69002205211A2005F0DAFFAE
:100E30001A2005F0F3FF26E07B681B68B3F1804FB2
:100E40000ED100233B61134B1B6C124A43F001038C
:100E50001364104B1B6C03F001033B613B6912E010
:100E60007B681B680C4A93420DD10023FB60094B41
:100E70001B6C084A43F002031364064B1B6C03F01F
:100E80000203FB60FB6800BF1837BD4680BD00BF92
:100E900000000140003802400004004080B58AB0E4
:100EA00000AF786007F1140300221A605A609A605C
:100EB000DA601A617B681B68244A93421FD10023C1
:100EC0003B61234B1B6B224A43F001031363204B0E
:100ED0001B6B03F001033B613B694FF480737B6143
:100EE0000223BB610023FB6100233B6201237B6281
:100EF00007F114031946174805F002F922E07B6850
:100F00001B68154A93421DD10023FB60104B1B6BDD
:100F10000F4A43F0010313630D4B1B6B03F00103F6
:100F2000FB60FB6880237B610223BB610023FB61C4
:100F300000233B6202237B6207F114031946054834
:100F400005F0DEF800BF2837BD4680BD0000014037
:100F500000380240000002400004004080B58AB022
:100F600000AF786007F1140300221A605A609A609B
:100F7000DA601A617B681B684C4A934240F09180AA
:100F800000233B614A4B5B6C494A43F010035364B6
:100F9000474B5B6C03F010033B613B690023FB6034
:100FA000434B1B6B424A43F001031363404B1B6BE3
:100FB00003F00103FB60FB684FF4C0637B61022315
:100FC000BB610023FB6103233B6207237B6207F1C4
:100FD00014031946374805F093F8374B374A1A601F
:100FE000354B4FF000625A60334B00229A60324B0F
:100FF0000022DA60304B4FF480621A612E4B0022DF
:101000005A612D4B00229A612B4B0022DA612A4B48
:1010100000221A62284B00225A62274805F028FA5B
:101020000346002B01D0FFF71FFE7B68224A9A631C
:10103000214A7B689363224B224A1A60204B4FF06F
:1010400000625A601E4B40229A601D4B0022DA60FB
:101050001B4B4FF480621A61194B00225A61184BE6
:1010600000229A61164B0022DA61154B00221A62A7
:10107000134B00225A62124805F0FAF90346002B7E
:1010800001D0FFF7F1FD7B680D4A5A630C4A7B687B
:10109000936300220521252005F0A4FE252005F0FC
:1010A000BDFE00BF2837BD4680BD00BF0010014017
:1010B0000038024000000240E40400204064024086
:1010C00044050020B864024080B483B000AF78606B
:1010D00000BF0C37BD465DF8047B704780B483B019
:1010E00000AF786000BF0C37BD465DF8047B7047E9
:1010F00080B58CB000AF78600023BB6200237B62B8
:101100000023BB602E4B5B6C2D4A43F48023536459
:101110002B4B5B6C03F48023BB60BB6807F10C02B4
:1011200007F110031146184604F0B8FF04F0A2FFBF
:10113000B862BB6A234AA2FB03239B0C013B7B6280
:10114000214B224A1A60204B40F2E732DA601E4AF5
:101150007B6A53601C4B00221A611B4B00229A6071
:10116000194B00229A61184806F03EF9034687F8A9
:101170002F3097F82F30002B1BD1134806F0DEF9E3
:10118000034687F82F3097F82F30002B11D11A2003
:1011900005F044FE7B680F2B08D8002279681A20DE
:1011A00005F020FE0A4A7B68136002E0012387F8FD
:1011B0002F3097F82F3018463037BD4680BD00BF1E
:1011C0000038024083DE1B43383F002000480140C6
:1011D0006C02002080B500AF0022124912480DF0C9
:1011E00009FD0346002B01D0FFF73EFD0F490E48D5
:1011F0000DF030FD0346002B01D0FFF735FD0C4903
:1012000009480FF0E7FB0346002B01D0FFF72CFD48
:1012100005480DF055FD0346002B01D0FFF724FDD6
:1012200000BF80BD04000020803F00208802002015
:101230005400002080B483B000AF03463960FB71D6
:101240003B6812221A80034B18460C37BD465DF8E6
:10125000047B70472000002080B483B000AF0346B9
:101260003960FB713B6804221A80034B18460C3727
:10127000BD465DF8047B70473400002080B582B025
:1012800000AF03463960FB71FB79002B05D13A684A
:10129000074908480EF0BEFE04E03A6804490548D4
:1012A0000EF0B8FE024B18460837BD4680BD00BFA1
:1012B0005C4200206C21010880B582B000AF03467B
:1012C0003960FB713A68044904480EF0A3FE024BF2
:1012D00018460837BD4680BD5C42002084210108C5
:1012E00080B582B000AF03463960FB713B681A22BB
:1012F0001A8000F043F8024B18460837BD4680BDFF
:101300003800002080B582B000AF03463960FB7121
:10131000FB79002B05D13A68074908480EF07AFEA0
:1013200004E03A68044905480EF074FE024B184682
:101330000837BD4680BD00BF5C42002098210108EF
:1013400080B582B000AF03463960FB71FB79002B9A
:1013500005D13A68074908480EF05CFE04E03A6897
:10136000044905480EF056FE024B18460837BD46A4
:1013700080BD00BF5C420020A421010880B584B07C
:1013800000AF0F4B1B68FB600E4B1B68BB600E4B26
:101390001B687B60FA687B681344FB60FB68002B6A
:1013A00009D008220949F86800F014F80422084915
:1013B000B86800F00FF800BF1037BD4680BD00BF11
:1013C000107AFF1F147AFF1F187AFF1F3A000020BF
:1013D0004A00002080B487B000AFF860B9601346BF
:1013E000FB710023FB750023FB7527E0FB681B0FD7
:1013F000092B0BD8FB681B0FDAB2FB7D5B0019468B
:10140000BB680B443032D2B21A700AE0FB681B0F83
:10141000DAB2FB7D5B001946BB680B443732D2B2AF
:101420001A70FB681B01FB60FB7D5B000133BA682F
:10143000134400221A70FB7D0133FB75FA7DFB79A2
:101440009A42D3D300BF00BF1C37BD465DF8047B72
:101450007047000080B500AF0022054905480FF035
:10146000D3FA054903480FF0F1FA0023184680BD6E
:101470005C4C0020803F00205C44002080B400AF22
:1014800000231846BD465DF8047B704780B483B0E6
:1014900000AF03463960FB711346BB80FB79232BF9
:1014A0004AD801A252F823F039150008391500086E
:1014B00039150008391500083915000839150008D4
:1014C00039150008391500083915000839150008C4
:1014D00039150008391500083915000839150008B4
:1014E00039150008391500083915000839150008A4
:1014F0003915000839150008391500083915000894
:101500003915000839150008391500083915000883
:101510003915000839150008391500083915000873
:101520003915000839150008391500083915000863
:10153000391500083915000800BF002318460C377C
:10154000BD465DF8047B704780B582B000AF78601F
:101550003960796805480FF079FA04480FF094FA79
:10156000002318460837BD4680BD00BF803F0020DD
:1015700080B487B000AFF860B9601346FB710023F8
:10158000FB7597F9173018461C37BD465DF8047B8C
:101590007047000080B58AB000AF786007F114038F
:1015A00000221A605A609A60DA601A617B681B68D0
:1015B000B3F1A04F3AD100233B611E4B1B6B1D4A78
:1015C00043F0010313631B4B1B6B03F001033B61EF
:1015D0003B694FF4C0537B610223BB610023FB6175
:1015E00003233B620A237B6207F114031946124866
:1015F00004F086FD0F4B5B6B0E4A43F08003536390
:101600000023FB600B4B5B6C0A4A43F4804353643A
:10161000084B5B6C03F48043FB60FB6800220521F0
:10162000432005F0DFFB432005F0F8FB00BF28371F
:10163000BD4680BD003802400000024080B582B047
:1016400000AF78607B68D3F808257B6803F2C44359
:10165000194610460DF081FB00BF0837BD4680BD1E
:1016600080B582B000AF78600B46FB707B68D3F822
:101670000805FA7879681346DB0013449B000B4495
:1016800003F523731A68FB7819460DF0BBFB00BF06
:101690000837BD4680BD80B582B000AF78600B468C
:1016A000FB707B68D3F80805FA7879681346DB008D
:1016B00013449B000B444C331A68FB7819460DF019
:1016C00054FC00BF0837BD4680BD80B582B000AF76
:1016D00078607B68D3F8083518460DF088FD00BFA8
:1016E0000837BD4680BD80B584B000AF7860012367
:1016F000FB737B68DB68022B01D0FFF7B5FA7B68D0
:10170000D3F80835FA7B114618460DF032FD7B6898
:10171000D3F8083518460DF0DAFC00BF1037BD4687
:1017200080BD000080B582B000AF78607B68D3F8E0
:10173000083518460DF02DFD7B681B6803F56063C6
:101740001B687A68126802F5606243F00103136057
:101750007B681B6A002B05D0044B1B69034A43F0CE
:101760000603136100BF0837BD4680BD00ED00E0F1
:1017700080B582B000AF78607B68D3F80835184632
:101780000DF01DFD00BF0837BD4680BD80B582B09D
:1017900000AF78600B46FB707B68D3F80835FA78A9
:1017A000114618460DF075FD00BF0837BD4680BDD7
:1017B00080B582B000AF78600B46FB707B68D3F8D1
:1017C0000835FA78114618460DF031FD00BF08378C
:1017D000BD4680BD80B582B000AF78607B68D3F82D
:1017E000083518460DF087FD00BF0837BD4680BD9F
:1017F00080B582B000AF78607B68D3F808351846B2
:101800000DF084FD00BF0837BD4680BD80B582B0B5
:1018100000AF78607B681B78002B3CD1204A7B6846
:10182000C2F808357B681E4AC3F8C8221C4B4FF02B
:10183000A0421A601A4B04225A60194B0222DA6045
:10184000174B00221A61164B02229A61144B002298
:10185000DA61134B00221A62114B00225A62104BBC
:101860000022DA620E4B00221A630D4801F0F2F8F2
:101870000346002B01D0FFF7F7F98021084802F05A
:101880004AFB40220021064802F0FEFA8022012194
:10189000034802F0F9FA002318460837BD4680BD18
:1018A0005C54002080B584B000AF78600023FB73E7
:1018B0000023BB737B68D3F8C832184601F0E7F900
:1018C0000346FB73FB7B184600F042F90346BB73EB
:1018D000BB7B18461037BD4680BD80B584B000AFD5
:1018E0007860084611461A460346FB700B46BB70EB
:1018F00013463B800023FB730023BB737B68D3F844
:10190000C802BB783A88F97801F0B8FE0346FB7349
:10191000FB7B184600F01CF90346BB73BB7B1846E3
:101920001037BD4680BD80B584B000AF78600B46EF
:10193000FB700023FB730023BB737B68D3F8C832B2
:10194000FA781146184601F001FF0346FB73FB7B52
:10195000184600F0FDF80346BB73BB7B18461037F2
:10196000BD4680BD80B584B000AF78600B46FB708B
:101970000023FB730023BB737B68D3F8C832FA786B
:101980001146184601F0D9FF0346FB73FB7B18464E
:1019900000F0DEF80346BB73BB7B18461037BD462C
:1019A00080BD80B584B000AF78600B46FB7000232B
:1019B000FB730023BB737B68D3F8C832FA781146F7
:1019C000184602F01EF80346FB73FB7B184600F036
:1019D000BFF80346BB73BB7B18461037BD4680BDBE
:1019E00080B485B000AF78600B46FB707B68D3F89D
:1019F000C832FB6097F90330002B0BDAFB7803F059
:101A00007F02F9681346DB0013449B000B443E330E
:101A10001B780BE0FB7803F07F02F9681346DB00CC
:101A200013449B000B4403F27E231B7818461437A3
:101A3000BD465DF8047B704780B584B000AF786028
:101A40000B46FB700023FB730023BB737B68D3F84A
:101A5000C832FA781146184601F0EBFD0346FB73D5
:101A6000FB7B184600F074F80346BB73BB7B18463B
:101A70001037BD4680BD80B586B000AFF8607A6093
:101A80003B600B46FB720023FB750023BB75FB68B4
:101A9000D3F8C802F97A3B687A6801F004FF03467C
:101AA000FB75FB7D184600F053F80346BB75BB7D04
:101AB00018461837BD4680BD80B586B000AFF860C7
:101AC0007A603B600B46FB720023FB750023BB75FD
:101AD000FB68D3F8C802F97A3B687A6801F080FEA7
:101AE0000346FB75FB7D184600F032F80346BB75D4
:101AF000BB7D18461837BD4680BD80B582B000AFAB
:101B000078600B46FB707B68D3F8C832FA781146D0
:101B1000184601F0B0FE034618460837BD4680BDA2
:101B200080B483B000AF7860034B18460C37BD46D5
:101B30005DF8047B704700BF6859002080B483B013
:101B400000AF786000BF0C37BD465DF8047B70477E
:101B500080B485B000AF0346FB710023FB73FB79B3
:101B6000032B17D801A252F823F000BF7D1B0008F9
:101B7000831B0008891B00088F1B00080023FB73D0
:101B80000BE00323FB7308E00123FB7305E0032351
:101B9000FB7302E00323FB7300BFFB7B1846143783
:101BA000BD465DF8047B704790B587B000AF7860A4
:101BB00000237B61364B1B684FF0FF3118460BF05A
:101BC000C7FE344B1B68002118460CF05FF9034632
:101BD000FB60FB68002B4CD0FC68786800F098F83C
:101BE00003462370FB680A225A70FB681B780B2B94
:101BF00034D07868FEF7D4FA034601331A46796880
:101C000025480FF04DF8FB68234A5A60234B0A22FF
:101C10001A70FC680BF006FB0346A360204B1868A3
:101C200007F10C01FA2300220BF09CFF38613B699D
:101C3000002B06D07B695A1C7A61042B01D903233F
:101C400021E03B69002BE9D180200BF045FB4FF0F0
:101C5000FF32002180200BF07DFB0DE00D4B1B6857
:101C6000FA68114618460CF087F90C4B03221A70DB
:101C700002E00A4B03221A70054B1B6818460BF052
:101C8000B9FE064B1B7818461C37BD4690BD00BFF9
:101C9000703D0020885B0020945B0020905B00205A
:101CA000183C002090B585B000AF78600023FB6041
:101CB00024E0FA6813461B011344144A13445C1CC5
:101CC000FA6813461B011344104A134401331846A3
:101CD000FEF766FA03461A46214678680EF0EEFFD4
:101CE0000346002B07D10949FA6813461B01134428
:101CF0000B441B7806E0FB680133FB60FB680A2B92
:101D0000D7D90A2318461437BD4690BD642501086B
:101D100090B585B000AF78600023FB6027E0FA68DB
:101D200013465B001344DB000833154A9C18FA681D
:101D300013465B001344DB000833114A1344184672
:101D4000FEF72EFA03461A46214678680EF0B6FFD3
:101D50000346002B08D10A49FA6813465B00134476
:101D6000DB000B441B7806E0FB680133FB60FB687B
:101D70000B2BD4D90B2318461437BD4690BD00BF9A
:101D80004424010890B58BB002AF78600023FB7744
:101D90000023BB600023BB6100237B6100233B6108
:101DA0008E4B186807F1080140F6B83300220BF09B
:101DB00039FFF860FB6813F1020F2CD17B69002B0F
:101DC00000F035817B691B781946854A0B465B001C
:101DD0000B44DB00134402331B781A463B699342E1
:101DE00005D27B69BB613B6901333B611FE17D4BE0
:101DF00005221A707B699B68802118460BF01EFA39
:101E0000794B1B68796918460CF0B6F800237B61A2
:101E10000023FB770BE1FB68002B40F00881BB68D7
:101E20001B780A2B04D8BB68BB6100233B6121E00F
:101E3000BB685B780A2B1CD16A4B03221A707B6942
:101E4000002B0BD07B699B68802118460BF0F6F9BC
:101E5000654B1B68796918460CF08EF8624B1B685D
:101E6000BA68114618460CF087F800237B610023FE
:101E7000FB7700BFBB685B78022B23D1BB685B6834
:101E800003F11400BB685B689968BB685B681A68FB
:101E9000BB685B68DC68BB685B681B6900932346B2
:101EA00000F074FD514B1A68BB685B681946104618
:101EB0000CF062F84C4B1B68BA68114618460CF0DF
:101EC0005BF8B4E0BB685B78042B03D0BB685B783D
:101ED000072B12D1BB685B78184600F0FDFB424B24
:101EE0001B68796918460CF047F83F4B1B68BA68C5
:101EF000114618460CF040F899E0BB681B780B2B94
:101F000040F09580FB7F002B02D0012B11D08EE09A
:101F10007B69002B05D0344B1B68796918460CF09F
:101F20002BF8314B1B68BA68114618460CF024F8A0
:101F30007DE0BB685A787B691B78184628490346C0
:101F40005B000344DB000B4401331B789A4227D12A
:101F50007B691B781946224A0B465B000B44DB0069
:101F6000134401331A781F4B1A707B69002B0BD076
:101F70007B699B68802118460BF060F91A4B1B683F
:101F8000796918460BF0F8FF174B1B68BA681146C1
:101F900018460BF0F1FF00237B610023FB7745E03F
:101FA0007B691B7819460E4A0B465B000B44DB002D
:101FB000134402331B781A463B69934218D23B699B
:101FC00001333B617B69BB6100237B61064B1B686E
:101FD000BA68114618460BF0CFFF27E0183C0020E6
:101FE00044240108905B0020885B00208C5B00206B
:101FF000BB685A781A4B1A707B69002B0BD07B692F
:102000009B68802118460BF019F9164B1B687969FB
:1020100018460BF0B1FF134B1B68BA6811461846FF
:102020000BF0AAFF00237B610023FB7700BFBB6995
:10203000002B3FF4B5AEBB697B610023BB6101237C
:10204000FB777B695B681C467B695B681846FEF71B
:10205000A7F803461946204600F0B0FAA0E600BFF4
:10206000905B0020885B002090B58DB000AF786059
:1020700000220C2108200BF033FE0346604A136057
:102080000022542102200BF02BFE03465D4A136010
:1020900000F0C2F80023BB625B4B186807F1100127
:1020A0004FF0FF3300220BF0BDFD78627B6A002BFE
:1020B000F2D1534B1B68002118460BF0E7FE034694
:1020C000FB60FB68002B00F09180FB680B221A700C
:1020D0003B69FC681846FFF7E5FD03466370FB6843
:1020E0000A2B7BD0FB685B78022B6BD1454B1B68BE
:1020F000002118460BF0CAFE38623B694349184676
:102100000EF0DAFE0346FB61404900200EF0D4FEDB
:102110000346FB61FB69BB610023FB723B6A002243
:102120001A75B869FEF73CF802463B6A9A600023CC
:10213000FB6219E0BA69FB6A13441B889BB23B81BE
:1021400007F108031022002118460EF07BFD03461C
:102150007B61FB6A5B087A69D1B23A6A13440A462A
:102160001A75FB6A0233FB623B6A9B68FA6A9A4201
:10217000E0D3264900200EF09FFE0346FB61F8697C
:102180000EF095FE03461A463B6A1A601F4900206E
:102190000EF092FE0346FB61F8690EF088FE0246DF
:1021A0003B6ADA60194900200EF086FE0346FB61A7
:1021B000F8690EF07CFE02463B6A1A61FB683A6AD7
:1021C0005A6002E0FB6800225A60114B186807F160
:1021D0000C01002300220BF0C5FC08E0084B1B6833
:1021E000FA68114618460BF0C7FE00E0FEE7094BFF
:1021F0001B683A69114618460BF0BEFE4CE700BF5B
:10220000885B00208C5B0020B43B0020B4210108D7
:10221000183C00202C5D002080B500AF002240213A
:1022200008200BF05DFD03460C4A13600B4B1B6846
:10223000002B01D100BFFDE700F018F8402208494B
:10224000084806F00DFA084B1B681A68064B1B6815
:1022500022F008021A6000BF80BD00BF2C5D002084
:10226000EC5B0020A0040020E404002080B500AF57
:10227000402200210D480EF0B1FE4FF48072002183
:102280000B480EF0ABFE0B4B4FF48072DA60094B3B
:1022900000221A60074B00225A60064B00229A6007
:1022A000044B034A1A6100BF80BD00BFEC5B0020F5
:1022B0002C5C0020D85B002080B584B000AF786033
:1022C00039602C4B1B69002B01D100234DE0294BB9
:1022D0001A68284B5B689A4206D3264BDA68254B6E
:1022E0001B68D31AFB6005E0224B5A68214B1B6820
:1022F000D31AFB601F4B9A681E4BDB689A4201D1D0
:102300000023FB60FA683B68934228BF1346BB601A
:10231000184B1A69174B1B681344BA68796818463A
:102320000EF0BEFC134B1A68BB681344114A1360CD
:10233000104B9A68BB6813440E4A93600D4B1A68A1
:102340000C4BDB689A420FD10A4B00221A607A6864
:10235000BB68D0183A68BB68D31A1946FFF7ACFFC0
:102360000246BB68134400E0BB6818461037BD4600
:1023700080BD00BFD85B002080B586B002AF78601A
:102380003960264B1B69002B01D1002342E0234B0F
:102390001A6900920FCB00F0DBF802463B689342CB
:1023A00007D91E4B1A6900920FCB00F0D1F80346F3
:1023B00000E03B683B60194B5A683B681A44174B76
:1023C000DB689A420AD2154B1A69144B5B681344B6
:1023D0003A68194678680EF063FC1AE00F4BDA6829
:1023E0000E4B5B68D31AFB600C4B1A690B4B5B6896
:1023F0001344FA68194678680EF052FC7A68FB6854
:10240000D018064B19693A68FB68D31A1A460EF0C1
:1024100047FC3B6818461037BD4680BDD85B00209E
:1024200080B487B000AF0346FB71364B1B69002BAD
:1024300002D14FF0FF335FE0324B9B68002B02D19B
:102440004FF0FF3358E02F4B5A682E4B1B689A42CF
:102450001AD22C4B5B687B6110E02A4B1A697B69AE
:1024600013441B78FA799A4205D1264B5B687A6946
:10247000D31A013340E07B6901337B61214B1B6838
:102480007A699A42E9D335E01E4B5B683B6110E004
:102490001C4B1A693B6913441B78FA799A4205D19F
:1024A000184B5B683A69D31A013325E03B69013365
:1024B0003B61144BDB683A699A42E9D30023FB6025
:1024C00013E0104B1A69FB6813441B78FA799A429F
:1024D00008D10C4BDA680B4B5B68D21AFB681344CB
:1024E000013309E0FB680133FB60064B1B68FA68A7
:1024F0009A42E6D34FF0FF3318461C37BD465DF8CD
:10250000047B7047D85B002080B584B000AF786052
:10251000396039687868FFF72FFFF8600B4B9A68CD
:10252000FB68D31A094A9360084B5A68FB68134446
:10253000064AD268B3FBF2F101FB02F29B1A034A8E
:102540005360FB6818461037BD4680BDD85B00203D
:1025500080B400AF034B9B681846BD465DF8047B12
:10256000704700BFD85B002080B582B000AF7860B4
:102570000B467B807B8819460C48FFF79DFE402266
:102580000A490B4806F06CF80A4B1B681A68094B9D
:102590001B6822F008021A60074B1B6801211846CD
:1025A0000AF04CFE00BF0837BD4680BDEC5B002042
:1025B000A0040020E4040020DC18002080B584B0D2
:1025C00000AF78603960124B1B684FF0FF3118463E
:1025D0000BF0BEF90AF026FE03460E4A13603B6874
:1025E0009BB21A4679680C4805F0BCFF4FF0FF32E9
:1025F000002101200AF0AEFEF860054B1B6818466A
:102600000BF0F8F93B6818461037BD4680BD00BF97
:10261000183E0020D45B0020A004002080B483B0CA
:1026200000AF786000BF0C37BD465DF8047B704793
:1026300080B582B000AF7860044B1B68012118465A
:102640000AF0FCFD00BF0837BD4680BDD45B00200A
:1026500080B586B000AF78604FF0FF3200210120D6
:102660000AF078FE78610A20FFF7DAFE38613B69EC
:10267000002BF1DD164B1B68002118460BF006FC01
:102680000346FB60FB68002BE6D00CF0ADF8FB685E
:102690001A463B6919461046FFF736FF07F10B0350
:1026A00001211846FFF768FEFB7A0D2B05D107F1D3
:1026B0000B0301211846FFF727FF0CF0C7F8054B65
:1026C000186807F10C01002300220BF04BFAC3E756
:1026D0002C5D0020B43B002080B582B000AF0346E3
:1026E000FB71184B1B684FF0FF3118460BF030F9A7
:1026F000154B1B78DBB2042B1BD1FB79042B06D1C5
:10270000124B00221A60082000F056F80BE00F4B25
:102710001B6801330D4A13600C4B1B68092B02D157
:10272000012000F049F80A4B1B68012118460AF005
:1027300085FD044B1B6818460BF05CF900BF083799
:10274000BD4680BD6C3E002068000020305D00204A
:102750004421002080B582B000AF78600B4B1B682D
:102760004FF0FF3118460BF0F3F8094B1B78DBB242
:10277000102B02D1082000F01FF8044B1B681846EC
:102780000BF038F900BF0837BD4680BD6C3E002015
:102790006800002080B500AF03E041F288300AF005
:1027A0005AFE0448FFF700FA0346082BF5D100BF94
:1027B00080BD00BFB821010880B582B000AF0346DC
:1027C000FB71064AFB791370054B1B680121184603
:1027D0000AF034FD00BF0837BD4680BD6800002008
:1027E0004421002080B483B000AF786000BF0C3774
:1027F000BD465DF8047B704780B586B000AF786059
:1028000000237B614A4B1B68322118460AF0D0FE38
:10281000484B1B68012118460AF010FD4FF0FF32AB
:10282000002101200AF096FD3861434B1B684FF0F0
:10283000FF3118460BF08CF8404B1B681F211846DF
:102840000AF066FF3E4B1B78DBB2013B0F2B5ED8D4
:1028500001A252F823F000BF99280008BD28000803
:102860000F2900080F2900080F2900080F29000868
:102870000F2900080F2900080F2900080F29000858
:102880000F2900080F2900080F2900080F29000848
:102890000F290008FF280008FFF77CFF00237B6159
:1028A0000220FFF789FF234B1B68012118460AF01D
:1028B000C5FC4FF47A700AF0CEFD28E07B691B025C
:1028C000204A13441846FFF76FF90346002B0CD13A
:1028D0007B6901337B617B69022B02D10420FFF706
:1028E0006BFF64200AF0B7FD02E00120FFF764FFF0
:1028F000104B1B68012118460AF0A0FC07E0124BA0
:102900001B6843F2B06118460AF052FE00BF0B4B41
:102910001B680B4A1278D2B2114618460AF0B6FE6E
:10292000F860054B1B6818460BF064F876E700BFAB
:10293000103D0020442100206C3E0020143F002068
:10294000680000206C000020403D002080B500AFF2
:102950000C4B18684FF0FF33022208210AF009FFE0
:10296000094B1B684FF0FF3118460AF0F1FF054B89
:1029700018684FF0FF33022208210AF0FAFE00BF68
:1029800080BD00BF143F0020C03E002080B485B051
:1029900000AFF860B9607A603B6000BF1437BD4695
:1029A0005DF8047B704780B483B000AF786000BFEF
:1029B0000C37BD465DF8047B704780B582B000AF30
:1029C0007860FFF7C3FF47F230500AF044FD00BFC4
:1029D000F7E7000080B582B000AF786008210448B6
:1029E00003F02BFD32200AF036FD00BFF6E700BFF2
:1029F0000000024080B582B000AF78600421044836
:102A000003F01BFD4FF4FA700AF025FD00BFF5E757
:102A10000000024080B582B000AF78601021044809
:102A200003F00BFD4FF448700AF015FD00BFF5E709
:102A30000000024080B582B000AF786002210448F7
:102A400003F0FBFCFA200AF006FD00BFF6E700BF2A
:102A500000000240F0B58FB00AAF78607B68002BB1
:102A600001D101230FE17B681B68BB607B6893F891
:102A7000BD34DBB2002B06D17B68002283F8BC2476
:102A80007868FEF787FD7B68032283F8BD24BB6866
:102A9000DB6B03F48073002B02D17B6800221A6188
:102AA0007B681B68184601F068FB7B681B683B600D
:102AB0007E686D4606F110040FCC0FC50FCC0FC514
:102AC00094E8030085E80300331D0ECB386801F05D
:102AD0003FFA0346002B05D07B68022283F8BD2411
:102AE0000123D0E07B681B680021184601F056FBEB
:102AF0000023FB734AE0FA7B79681346DB0013443A
:102B00009B000B443D3301221A70FA7B796813460F
:102B1000DB0013449B000B443C33FA7B1A70FA7BB6
:102B2000FB7B98B279681346DB0013449B000B448F
:102B3000443302461A80FA7B79681346DB0013445B
:102B40009B000B44403300221A70FA7B79681346CD
:102B5000DB0013449B000B44483300221A60FA7BCD
:102B600079681346DB0013449B000B444C3300226E
:102B70001A60FA7B79681346DB0013449B000B4410
:102B8000543300221A60FB7B0133FB73FA7B7B68B2
:102B90005B689A42AFD30023FB7344E0FA7B796809
:102BA0001346DB0013449B000B4403F27D230022F9
:102BB0001A70FA7B79681346DB0013449B000B44C0
:102BC00003F51F73FA7B1A70FA7B79681346DB00F2
:102BD00013449B000B4403F5207300221A70FA7B08
:102BE00079681346DB0013449B000B4403F5227302
:102BF00000221A60FA7B79681346DB0013449B00BD
:102C00000B4403F5237300221A60FA7B796813469C
:102C1000DB0013449B000B4403F5257300221A606C
:102C2000FB7B0133FB73FA7B7B685B689A42B5D30D
:102C30007B681B683B607E686D4606F110040FCC14
:102C40000FC50FCC0FC594E8030085E80300331DC2
:102C50000ECB386801F0EEFA0346002B05D07B68F6
:102C6000022283F8BD2401230DE07B68002283F853
:102C700038207B68012283F8BD247B681B681846D6
:102C800002F03DFC002318461437BD46F0BD80B568
:102C900084B000AF78607B681B68FB607B6893F84A
:102CA000BC34012B01D1022320E07B68012283F890
:102CB000BC247B689B6A012B09D17B689B69012B33
:102CC00005D0FB689B6B43F48032FB689A637B689A
:102CD0001B68184601F040FA7B681B68184602F032
:102CE000EDFB7B68002283F8BC24002318461037D4
:102CF000BD4680BD90B58DB000AF78607B681B6825
:102D00003B623B6AFB617B681B68184602F0ABFCC8
:102D10000346002B40F08A847B681B68184602F04B
:102D20000FFC0346002B00F08084FB6903F5006371
:102D30009B681B0AC3F30D027B68C3F8FC247B6805
:102D40001B68184602F0FCFB034603F00203022B4B
:102D500007D17B681B685A697B681B6802F0020216
:102D60005A617B681B68184602F0EAFB034603F0D1
:102D70001003102B61D17B681B689A697B681B6804
:102D800022F010029A613B6A1B6ABB61BB6903F0C7
:102D90000F021346DB0013449B0003F51E737A6891
:102DA000134404337B61BB695B0C03F00F03022BFC
:102DB00024D1BA6947F6F0731340002B35D07B69F4
:102DC0001969BB691B099BB2C3F30A039BB21A467C
:102DD000386A02F021FA7B691A69BB691B09C3F3DF
:102DE0000A031A447B691A617B691A6ABB691B0969
:102DF000C3F30A031A447B691A6216E0BB695B0CD1
:102E000003F00F03062B10D17B6803F2C4430822A2
:102E10001946386A02F000FA7B691A6ABB691B0915
:102E2000C3F30A031A447B691A627B681B689A69B8
:102E30007B681B6842F010029A617B681B68184629
:102E400002F07EFB034603F40023B3F5002F40F0AD
:102E5000A78000237B627B681B68184602F083FB17
:102E6000B86299E0BB6A03F00103002B00F08E808A
:102E70007B681B687A6AD2B21146184602F0A7FB3B
:102E800038613B6903F00103002B0CD07B6A5A01C7
:102E9000FB69134403F530631A4601239360796A92
:102EA000786800F0C3FE3B6903F00803002B0CD0E8
:102EB0007B6A5A01FB69134403F530631A46082301
:102EC0009360796A786800F099FF3B6903F010031A
:102ED000002B08D07B6A5A01FB69134403F5306369
:102EE0001A46102393603B6903F00203002B30D095
:102EF0003B6A5B6903F08003802B09D1FB6903F512
:102F000000635B68FA6902F5006243F48063536012
:102F10007A6A1346DB0013449B0003F51E737A683C
:102F2000134404337B617B69DB78012B08D17B6917
:102F30000022DA707B6ADBB219467868FEF726FC5D
:102F40007B6A5A01FB69134403F530631A46022376
:102F500093603B6903F02003002B08D07B6A5A0181
:102F6000FB69134403F530631A46202393603B69E1
:102F700003F40053002B09D07B6A5A01FB69134408
:102F800003F530631A464FF4005393607B6A0133B4
:102F90007B62BB6A5B08BB62BB6A002B7FF462AFDB
:102FA0007B681B68184602F0CBFA034603F48023C3
:102FB000B3F5802F40F0DB807B681B68184602F079
:102FC000ECFAB86200237B62CDE0BB6A03F0010338
:102FD000002B00F0C2807B681B687A6AD2B211466F
:102FE000184602F012FB38613B6903F00103002B25
:102FF00057D07B6A03F00F03012202FA03F3FB6050
:10300000FB6903F500635A6BFB68DB43F96901F563
:10301000006113404B637B6A5A01FB69134403F55B
:1030200010631A46012393607B681B69012B32D120
:1030300079687A6A1346DB0013449B000B444C33D7
:10304000196878687A6A1346DB0013449B000344CE
:1030500048331B68194478687A6A1346DB001344C6
:103060009B0003444C3319607B6A002B13D17968B1
:103070007A6A1346DB0013449B000B4454331B68ED
:10308000002B08D17B6818687B6803F2C4431A469A
:10309000012102F019FB7B6ADBB219467868FEF762
:1030A000FAFA3B6903F00803002B08D07B6A5A0147
:1030B000FB69134403F510631A46082393603B69C8
:1030C00003F01003002B08D07B6A5A01FB691344FC
:1030D00003F510631A46102393603B6903F0400325
:1030E000002B08D07B6A5A01FB69134403F5106377
:1030F0001A46402393603B6903F00203002B23D060
:10310000796A386A01F0FAF97A6A1346DB001344E7
:103110009B0038337A68134404337B617B69DB7826
:10312000012B08D17B690022DA707B6ADBB2194679
:103130007868FEF73DFB7B6A5A01FB69134403F58F
:1031400010631A46022393603B6903F08003002B4F
:1031500003D0796A786800F0DBFC7B6A01337B621C
:10316000BB6A5B08BB62BB6A002B7FF42EAF7B6837
:103170001B68184602F0E4F9034603F00043B3F17C
:10318000004F22D1FB6903F500635B68FA6902F521
:10319000006223F0010353607B6893F8F434012B41
:1031A00008D17B68002283F8F4240021786800F0BD
:1031B000C3FE02E07868FEF7DBFA7B681B685A6999
:1031C0007B681B6802F000425A617B681B681846E6
:1031D00002F0B6F9034603F40063B3F5006F12D1B1
:1031E000FB6903F500639B6803F00103012B02D127
:1031F0007868FEF797FA7B681B685A697B681B68DA
:1032000002F400625A617B681B68184602F098F964
:10321000034603F48053B3F5805F40F0B780FB6949
:1032200003F500635B68FA6902F5006223F00103AD
:1032300053607B681B681021184601F05FF900237A
:10324000FB6246E0FB6A5A01FB69134403F5106315
:103250001A464FF67F339360FB6A5A01FB691344A9
:1032600003F510631B68FA6A5101FA690A4402F512
:10327000106223F400131360FB6A5A01FB691344C4
:1032800003F530631A464FF67F339360FB6A5A01A9
:10329000FB69134403F530631B68FA6A5101FA694C
:1032A0000A4402F5306223F400131360FB6A5A01EA
:1032B000FB69134403F530631B68FA6A5101FA692C
:1032C0000A4402F5306243F000631360FB6A013385
:1032D000FB627B685B68FA6A9A42B3D3FB6903F5C9
:1032E0000063DB69FA6902F5006243F00113D36100
:1032F0007B681B6B002B16D0FB6903F50063D3F8CA
:103300008430FA6902F5006243F00B03C2F884309E
:10331000FB6903F500635B6CFA6902F5006243F038
:103320000B03536415E0FB6903F500635B69FA69FD
:1033300002F5006243F4005343F02B035361FB6931
:1033400003F500631B69FA6902F5006243F00B03A1
:103350001361FB6903F500631B68FA6902F50062FB
:1033600023F4FE6313607B6818687B681B69D9B21D
:103370007B6803F2C4431A4602F0A6F97B681B6817
:103380005A697B681B6802F480525A617B681B682B
:10339000184602F0D5F8034603F40053B3F5005F76
:1033A00024D17B681B68184602F06BF97B681B68A8
:1033B000184601F020F903461A467B68DA607B68FC
:1033C0001C6802F037FE01467B68DB68DBB21A46F8
:1033D000204600F01FFE7868FEF785F97B681B68C1
:1033E0005A697B681B6802F400525A617B681B684B
:1033F000184602F0A5F8034603F00803082B0AD18B
:103400007868FEF762F97B681B685A697B681B68FD
:1034100002F008025A617B681B68184602F090F8B7
:10342000034603F08003802B22D13B6A9B6923F083
:1034300080023B6A9A6101237B6214E079687A6AB0
:103440001346DB0013449B000B4403F27F231B78DD
:10345000012B05D17B6ADBB21946786800F027FBA7
:103460007B6A01337B627B685B687A6A9A42E5D348
:103470007B681B68184602F063F8034603F4801368
:10348000B3F5801F3BD101237B622BE07B6A5A019D
:10349000FB69134403F510631B68BB6179687A6AA2
:1034A0001346DB0013449B000B4440331B78012B75
:1034B00015D1BB69002B12DA79687A6A1346DB00F2
:1034C00013449B000B443F3301221A707B6ADBB22A
:1034D00063F07F03DBB21946786800F0E8FA7B6A94
:1034E00001337B627B685B687A6A9A42CED37B68E1
:1034F0001B685A697B681B6802F480125A617B68FA
:103500001B68184602F01CF8034603F40013B3F5D9
:10351000001F55D101237B6245E07B6A5A01FB699C
:10352000134403F530631B68BB6179687A6A1346FC
:10353000DB0013449B000B4403F520731B78012B25
:103540002ED1BB69002B2BDABB6903F480327B6878
:10355000D3F8FC3403F001039A4221D179687A6AE6
:103560001346DB0013449B000B4403F27F2301222C
:103570001A703B6A9B6943F080023B6A9A613B6A1E
:103580005B6903F08003002B0AD1FB6903F500633C
:103590005B68FA6902F5006243F40073536007E068
:1035A0007B6A01337B627B685B687A6A9A42B4D338
:1035B0007B681B685A697B681B6802F400125A61B9
:1035C0007B681B68184601F0BBFF034603F080438D
:1035D000B3F1804F0AD17868FEF7FCF87B681B686E
:1035E0005A697B681B6802F080425A617B681B68DD
:1035F000184601F0A5FF034603F00403042B15D180
:103600007B681B685B68BB61BB6903F00403002B2C
:1036100002D07868FEF7ECF87B681B6859687B6815
:103620001B68BA690A435A6000E000BF3437BD46E0
:1036300090BD80B582B000AF78600B46FB707B68B0
:1036400093F8BC34012B01D1022313E07B680122E3
:1036500083F8BC247B68FA7883F838207B681B6881
:10366000FA781146184601F003FF7B68002283F8C0
:10367000BC24002318460837BD4680BD80B584B001
:1036800000AF7860084611461A460346FB700B46A9
:103690003B801346BB700023FB7297F90330002B6D
:1036A0000FDAFB7803F00F021346DB0013449B0094
:1036B00038337A6813440433FB60FB6801225A7084
:1036C0000FE0FB7803F00F021346DB0013449B006E
:1036D00003F51E737A6813440433FB60FB68002211
:1036E0005A70FB7803F00F03DAB2FB681A703A885D
:1036F000FB68DA60FB68BA781A71FB685B78002BAC
:1037000004D0FB681B781A46FB681A81BB78022B31
:1037100002D1FB6800225A717B6893F8BC34012BFC
:1037200001D102230EE07B68012283F8BC247B6870
:103730001B68F968184600F083FF7B68002283F855
:10374000BC24FB7A18461037BD4680BD80B584B0D6
:1037500000AF78600B46FB7097F90330002B0FDA4F
:10376000FB7803F00F021346DB0013449B00383351
:103770007A6813440433FB60FB6801225A700FE03F
:10378000FB7803F00F021346DB0013449B0003F5A4
:103790001E737A6813440433FB60FB6800225A707E
:1037A000FB7803F00F03DAB2FB681A707B6893F8BA
:1037B000BC34012B01D102230EE07B68012283F887
:1037C000BC247B681B68F968184600F0C1FF7B6861
:1037D000002283F8BC24002318461037BD4680BD64
:1037E00080B586B000AFF8607A603B600B46FB7234
:1037F000FB7A03F00F021346DB0013449B0003F532
:103800001E73FA68134404337B617B697A681A611A
:103810007B693A689A617B6900221A627B6900229F
:103820005A70FB7A03F00F03DAB27B691A70FB68F7
:103830001B69012B02D17A687B695A61FB7A03F01C
:103840000F03002B09D1FB681868FB681B69DBB20A
:103850001A46796901F0A0FA08E0FB681868FB686D
:103860001B69DBB21A46796901F04EF8002318464D
:103870001837BD4680BD80B483B000AF78600B467A
:10388000FB70FB7803F00F0279681346DB001344EA
:103890009B000B4403F527731B6818460C37BD4685
:1038A0005DF8047B704780B586B000AFF8607A6041
:1038B0003B600B46FB72FB7A03F00F021346DB0002
:1038C00013449B003833FA68134404337B617B69EB
:1038D0007A681A617B693A689A617B6900221A6288
:1038E0007B6901225A70FB7A03F00F03DAB27B691D
:1038F0001A70FB681B69012B02D17A687B695A61D7
:10390000FB7A03F00F03002B09D1FB681868FB68F2
:103910001B69DBB21A46796901F03EFA08E0FB68E0
:103920001868FB681B69DBB21A46796900F0ECFF86
:10393000002318461837BD4680BD80B584B000AF5F
:1039400078600B46FB70FB7803F00F027B685B68C6
:103950009A4201D9012350E097F90330002B0FDA86
:10396000FB7803F00F021346DB0013449B0038334F
:103970007A6813440433FB60FB6801225A700DE03F
:10398000FA781346DB0013449B0003F51E737A6834
:1039900013440433FB60FB6800225A70FB68012269
:1039A0009A70FB7803F00F03DAB2FB681A707B6839
:1039B00093F8BC34012B01D102231EE07B68012265
:1039C00083F8BC247B681B68F968184601F07CFC0E
:1039D000FB7803F00F03002B0AD17B6818687B6823
:1039E0001B69D9B27B6803F2C4431A4601F06CFE2E
:1039F0007B68002283F8BC24002318461037BD469C
:103A000080BD80B584B000AF78600B46FB70FB785A
:103A100003F00F027B685B689A4201D9012342E000
:103A200097F90330002B0FDAFB7803F00F021346EF
:103A3000DB0013449B0038337A6813440433FB6083
:103A4000FB6801225A700FE0FB7803F00F02134667
:103A5000DB0013449B0003F51E737A6813440433A0
:103A6000FB60FB6800225A70FB6800229A70FB78AA
:103A700003F00F03DAB2FB681A707B6893F8BC346A
:103A8000012B01D102230EE07B68012283F8BC24C4
:103A90007B681B68F968184601F084FC7B6800228B
:103AA00083F8BC24002318461037BD4680BD80B57E
:103AB00084B000AF78600B46FB7097F90330002BA1
:103AC0000CDAFB7803F00F021346DB0013449B0073
:103AD00038337A6813440433FB600CE0FB7803F05E
:103AE0000F021346DB0013449B0003F51E737A6834
:103AF00013440433FB607B681B68F968184601F0C7
:103B0000A3FA0346FB72FB7A18461037BD4680BD08
:103B100080B58AB002AF786039607B681B687B61D2
:103B20007B693B613A681346DB0013449B003833E2
:103B30007A6813440433FB60FB681A6AFB689B696C
:103B40009A4201D901236CE0FB689A69FB681B6A01
:103B5000D31AFB61FB68DB68FA699A4202D9FB68F9
:103B6000DB68FB61FB6903339B08BB612BE0FB68EF
:103B70009A69FB681B6AD31AFB61FB68DB68FA6908
:103B80009A4202D9FB68DB68FB61FB6903339B083F
:103B9000BB61FB6819693B68DAB2FB6998B27B6864
:103BA0001B69DBB200930346786901F0F7FAFB6802
:103BB0001A69FB691A44FB681A61FB681A6AFB6997
:103BC0001A44FB681A623B685A013B69134403F5C7
:103BD00010639B699BB2BA699A4209D8FB681A6A5A
:103BE000FB689B699A4203D2FB689B69002BBED19C
:103BF000FB689A69FB681B6A9A4211D83B6803F01C
:103C00000F03012202FA03F3BB603B6903F5006373
:103C10005A6BBB68DB43396901F5006113404B63A4
:103C2000002318462037BD4680BD000080B588B00F
:103C300000AF786039607B681B68FB61FB69BB6122
:103C4000FB693C3304331B687B613B685A01BB69E9
:103C5000134403F530639B683B617B681B69012B50
:103C60007BD13B6903F00803002B15D07B69614AC7
:103C7000934240F2B9803B6903F40043002B00F00B
:103C8000B3803B685A01BB69134403F530631A469D
:103C90004FF400439360A7E03B6903F02003002B3F
:103CA00009D03B685A01BB69134403F530631A46D7
:103CB0002023936098E03B6903F02803002B40F039
:103CC00093807B694B4A93420FD93B6903F40043CD
:103CD000002B0AD03B685A01BB69134403F53063DB
:103CE0001A464FF4004393607EE03A681346DB00C7
:103CF00013449B0003F51E737A6813440433FB607E
:103D0000FB68DA693B685901BB690B4403F5306312
:103D10001B69C3F31203D21AFB681A623B68002BBB
:103D200014D1FB689B69002B09D17B6818687B68FC
:103D300003F2C4431A46012101F0C6FC06E0FB6809
:103D40001A69FB681B6A1A44FB681A613B68DBB29C
:103D500019467868FDF784FC46E07B69264A934261
:103D600024D13B6903F40043002B0AD03B685A017D
:103D7000BB69134403F530631A464FF40043936064
:103D800032E03B6903F02003002B08D03B685A0166
:103D9000BB69134403F530631A46202393603B68E4
:103DA000DBB219467868FDF75BFC1DE03B68002B31
:103DB00014D179683A681346DB0013449B000B4426
:103DC00003F525731B68002B08D17B6818687B6896
:103DD00003F2C4431A46002101F076FC3B68DBB2D3
:103DE00019467868FDF73CFC002318462037BD468D
:103DF00080BD00BF0A30544F0A31544F80B586B0A1
:103E000000AF786039607B681B687B617B693B61D0
:103E10007B693C3304331B68FB603B685A013B6998
:103E2000134403F530639B68BB60FB68154A9342FB
:103E30000ED9BB6803F40043002B09D03B685A013C
:103E40003B69134403F530631A464FF40043936013
:103E50007868FDF7F3FBFB680A4A93420CD97B684C
:103E60001B69012B08D17B6818687B6803F2C44387
:103E70001A46012101F028FC002318461837BD46D8
:103E800080BD00BF0A30544F80B485B000AF786069
:103E90000B46FB7013463B807B681B685B6ABB600C
:103EA000FB78002B07D13B8819047B681B68BA6834
:103EB0000A439A6228E07B681B689B6A1B0CBA68FD
:103EC0001344BB600023FB730DE07B681A68FB7B27
:103ED00040339B0013445B681B0CBA681344BB60FF
:103EE000FB7B0133FB73FA7BFB78013B9A42ECD3FB
:103EF0003B8818047B681968FB78013BBA68024369
:103F000040339B000B445A60002318461437BD46CB
:103F10005DF8047B704780B483B000AF78600B46D7
:103F20007B807B681B687A885A62002318460C37AE
:103F3000BD465DF8047B704780B483B000AF786005
:103F40000B46FB7000BF0C37BD465DF8047B704725
:103F500084B080B584B000AF786007F11C0080E8C1
:103F60000E003B6B012B22D17B689B6B23F48032CC
:103F70007B689A637B68DB6823F4840323F0400347
:103F80007A68D3607B68DB6823F440127B68DA6070
:103F9000FB6C012B05D17B68DB6843F480127B68E6
:103FA000DA60786801F0EEFB0346FB731AE07B6889
:103FB000DB6843F040027B68DA60786801F0E2FB7E
:103FC0000346FB733B6C002B06D17B689B6B43F471
:103FD00080327B689A6305E07B689B6B23F48032B8
:103FE0007B689A63BB6A012B0BD17B689B6843F0AB
:103FF00006027B689A607B689B6843F020027B68BE
:104000009A60FB7B18461037BD46BDE8804004B07F
:104010007047000080B487B000AFF860B960134605
:10402000FB71FB79022B65D1BB68414A934206D9EB
:10403000BB68404A934202D20F237B6162E0BB68B7
:104040003C4A934206D3BB683B4A934202D20E23BA
:104050007B6157E0BB68384A934206D3BB68374A56
:10406000934202D20D237B614CE0BB68334A9342FA
:1040700006D3BB68324A934202D80C237B6141E0ED
:10408000BB682F4A934206D9BB682E4A934202D896
:104090000B237B6136E0BB682A4A934206D9BB6892
:1040A000294A934202D80A237B612BE0BB68264A47
:1040B000934206D9BB68254A934202D209237B6109
:1040C00020E0BB68214A934206D3BB68204A934252
:1040D00002D808237B6115E0BB681D4A934206D9CC
:1040E000BB681C4A934202D207237B610AE0062385
:1040F0007B6107E0FB79002B02D109237B6101E0A2
:1041000009237B61FB68DB6823F47052FB68DA608B
:10411000FB68DA687B699B0203F470531A43FB68FF
:10412000DA60002318461C37BD465DF8047B7047F3
:10413000BFACD800C0E1E4000024F40080730601A5
:104140009F491A01FF2C31013FA44C0100366E013A
:104150001FABA6010048E80180B483B000AF7860CF
:104160007B689B6843F001027B689A6000231846D5
:104170000C37BD465DF8047B704780B483B000AF58
:1041800078607B689B6823F001027B689A6000235B
:1041900018460C37BD465DF8047B704780B584B087
:1041A00000AF78600B46FB700023FB607B68DB6828
:1041B00023F0C0427B68DA60FB78012B15D17B6865
:1041C000DB6843F000527B68DA60012002F076FE83
:1041D000FB680133FB60786801F045FA0346012B68
:1041E0001ED0FB68312BF0D91AE0FB78002B15D1DB
:1041F0007B68DB6843F080427B68DA60012002F074
:104200005DFEFB680133FB60786801F02CFA034621
:10421000002B05D0FB68312BF0D901E0012305E02C
:10422000FB68322B01D1012300E000231846103730
:10423000BD4680BD84B080B586B000AF786007F120
:10424000240080E80E000023FB757B68FB600023E0
:104250003B6109E07A683B6940339B0013440022CC
:104260005A603B6901333B613B690E2BF2D9FB6C11
:10427000002B1CD1FB6803F500635B68FA6802F54C
:10428000006243F0020353607B689B6B43F40012AF
:104290007B689A637B689B6B23F400227B689A633C
:1042A0007B689B6B23F480227B689A630BE07B68BE
:1042B0009B6B23F400127B689A637B689B6B43F4CF
:1042C00000227B689A63FB6803F560631A4600234B
:1042D0001360FB6803F500631946FB6803F5006390
:1042E0001A460B681360BB6B012B0CD1FB6A002BC9
:1042F00004D10021786800F065F908E001217868B0
:1043000000F060F903E00321786800F05BF9102108
:10431000786800F0F3F80346002B01D00123FB7509
:10432000786800F01FF90346002B01D00123FB75CC
:10433000FB6803F500631A4600231361FB6803F56D
:1043400000631A4600235361FB6803F500631A46B5
:104350000023D36100233B6143E03B695A01FB68C2
:10436000134403F510631B6803F00043B3F1004FDF
:1043700018D13B69002B0AD13B695A01FB681344F1
:1043800003F510631A464FF00063136013E03B69B6
:104390005A01FB68134403F510631A464FF090432B
:1043A000136008E03B695A01FB68134403F510638E
:1043B0001A46002313603B695A01FB68134403F556
:1043C00010631A46002313613B695A01FB681344CA
:1043D00003F510631A464FF67F3393603B69013350
:1043E0003B617B6A3A699A42B7D300233B6143E061
:1043F0003B695A01FB68134403F530631B6803F003
:104400000043B3F1004F18D13B69002B0AD13B693F
:104410005A01FB68134403F530631A464FF00063FA
:10442000136013E03B695A01FB68134403F53063E2
:104430001A464FF09043136008E03B695A01FB684D
:10444000134403F530631A46002313603B695A0195
:10445000FB68134403F530631A46002313613B697C
:104460005A01FB68134403F530631A464FF67F3355
:1044700093603B6901333B617B6A3A699A42B7D3E7
:10448000FB6803F500631B69FA6802F5006223F418
:10449000807313617B6800229A617B686FF08042B1
:1044A0005A613B6B002B05D17B689B6943F010027E
:1044B0007B689A617B689A690F4B13437A689361B2
:1044C000FB6B002B05D07B689B6943F008027B687F
:1044D0009A61FB6C012B07D17B689B6943F0804399
:1044E00043F004037A689361FB7D18461837BD4694
:1044F000BDE8804004B0704700383C8080B485B08F
:1045000000AF786039600023FB60FB680133FB601B
:10451000FB68134A934201D903231BE07B681B69A4
:10452000002BF2DA0023FB603B689B0143F0200282
:104530007B681A61FB680133FB60FB68084A9342A1
:1045400001D9032306E07B681B6903F02003202BBD
:10455000F0D0002318461437BD465DF8047B704741
:10456000400D030080B485B000AF78600023FB608D
:10457000FB680133FB60FB68114A934201D90323B6
:1045800018E07B681B69002BF2DA0023FB607B6874
:1045900010221A61FB680133FB60FB68084A9342F2
:1045A00001D9032306E07B681B6903F01003102B7D
:1045B000F0D0002318461437BD465DF8047B7047E1
:1045C000400D030080B485B000AF78600B46FB70EF
:1045D0007B68FB60FB6803F500631A68FB78F96889
:1045E00001F5006113430B60002318461437BD46E4
:1045F0005DF8047B704780B487B000AF78607B685B
:104600003B613B6903F500639B6803F00603FB60B5
:10461000FB68002B02D10023FB750AE0FB68022B2C
:1046200002D0FB68062B02D10223FB7501E00F23A9
:10463000FB75FB7D18461C37BD465DF8047B704753
:1046400080B485B000AF786039607B68FB603B6800
:104650001B78BB603B685B78012B3AD1FB6803F5A4
:104660000063DA693B681B7803F00F03012101FA4C
:1046700003F39BB2F96801F500611343CB61BB689A
:104680005A01FB68134403F510631B6803F40043ED
:10469000002B55D1BB685A01FB68134403F5106326
:1046A0001A683B68DB68C3F30A013B681B799B040B
:1046B0001943BB689B050B431343BA685101FA6861
:1046C0000A4402F5106243F0805343F40043136040
:1046D00036E0FB6803F50063DA693B681B7803F09A
:1046E0000F03012101FA03F31B04F96801F50061CE
:1046F0001343CB61BB685A01FB68134403F5306375
:104700001B6803F40043002B1AD1BB685A01FB68F5
:10471000134403F530631A683B68DB68C3F30A018E
:104720003B681B799B040B431343BA685101FA6839
:104730000A4402F5306243F0805343F400431360AF
:10474000002318461437BD465DF8047B704700000F
:1047500080B485B000AF786039607B68FB603B68EF
:104760001B78BB603B685B78012B61D1BB685A0149
:10477000FB68134403F510631B6803F00043B3F1B7
:10478000004F1FD1BB685A01FB68134403F5106347
:104790001B68BA685101FA680A4402F5106243F0D6
:1047A00000631360BB685A01FB68134403F5106390
:1047B0001B68BA685101FA680A4402F5106243F0B6
:1047C00080431360FB6803F50063DA6B3B681B787A
:1047D00003F00F03012101FA03F39BB2DB43F968F5
:1047E00001F500611340CB63FB6803F50063DA69F0
:1047F0003B681B7803F00F03012101FA03F39BB21E
:10480000DB43F96801F500611340CB61BB685A01D5
:10481000FB68134403F510631A68BB685901FB6811
:104820000B4403F510631946354B13400B6060E0F1
:10483000BB685A01FB68134403F530631B6803F03F
:104840000043B3F1004F1FD1BB685A01FB6813440A
:1048500003F530631B68BA685101FA680A4402F52F
:10486000306243F000631360BB685A01FB68134475
:1048700003F530631B68BA685101FA680A4402F50F
:10488000306243F080431360FB6803F50063DA6B2A
:104890003B681B7803F00F03012101FA03F31B04AB
:1048A000DB43F96801F500611340CB63FB6803F556
:1048B0000063DA693B681B7803F00F03012101FAFA
:1048C00003F31B04DB43F96801F500611340CB617E
:1048D000BB685A01FB68134403F530631A68BB6870
:1048E0005901FB680B4403F530631946054B13402F
:1048F0000B60002318461437BD465DF8047B7047F3
:10490000007833EC0078F3EF80B58AB002AFF8603E
:10491000B9601346FB71FB68FB61BB681B78BB6128
:10492000BB685B78012B40F05C81BB689B69002B06
:1049300032D1BB695A01FB69134403F510631B694B
:10494000BA695101FA690A4402F5106223F0FF5373
:1049500023F4C0131361BB695A01FB69134403F5C7
:1049600010631B69BA695101FA690A4402F51062C1
:1049700043F400231361BB695A01FB69134403F537
:1049800010631B69BA695101FA690A4402F51062A1
:10499000DB0CDB04136174E0BB695A01FB6913444F
:1049A00003F510631B69BA695101FA690A4402F5FB
:1049B0001062DB0CDB041361BB695A01FB69134411
:1049C00003F510631B69BA695101FA690A4402F5DB
:1049D000106223F0FF5323F4C0131361BB695A0123
:1049E000FB69134403F510631A69BB689969BB68D6
:1049F000DB680B44591EBB68DB68B1FBF3F3D904D9
:104A00009D4B0B40B9694801F969014401F51061FA
:104A100013430B61BB695A01FB69134403F510632F
:104A20001A69BB689B69C3F31203B9694801F96944
:104A3000014401F5106113430B61BB681B79012B25
:104A40001FD1BB695A01FB69134403F510631B694D
:104A5000BA695101FA690A4402F5106223F0C043B1
:104A60001361BB695A01FB69134403F510631B69A9
:104A7000BA695101FA690A4402F5106243F0005321
:104A80001361FB79012B4BD1BB685B69002B09D00B
:104A9000BB695A01FB69134403F510631A46BB68EE
:104AA0005B695361BB681B79012B28D1FB6903F556
:104AB00000639B6803F48073002B10D1BB695A011B
:104AC000FB69134403F510631B68BA695101FA6965
:104AD0000A4402F5106243F0005313600FE0BB6913
:104AE0005A01FB69134403F510631B68BA6951014D
:104AF000FA690A4402F5106243F080531360BB69FF
:104B00005A01FB69134403F510631B68BA6951012C
:104B1000FA690A4402F5106243F00443136033E17A
:104B2000BB695A01FB69134403F510631B68BA693A
:104B30005101FA690A4402F5106243F0044313601C
:104B4000BB681B79012B15D0BB689B69002B00F05B
:104B50001B81FB6903F500635A6BBB681B7803F08C
:104B60000F03012101FA03F3F96901F50061134311
:104B70004B6309E1FB6903F500639B6803F48073F1
:104B8000002B10D1BB695A01FB69134403F5106374
:104B90001B68BA695101FA690A4402F5106243F0D0
:104BA000005313600FE0BB695A01FB69134403F51E
:104BB00010631B68BA695101FA690A4402F5106270
:104BC00043F080531360BB681969BB681A78BB68EF
:104BD0009B6998B2FB7900930346F86800F0DEFA0F
:104BE000D2E0BB695A01FB69134403F530631B69CA
:104BF000BA695101FA690A4402F53062DB0CDB0440
:104C00001361BB695A01FB69134403F530631B69E7
:104C1000BA695101FA690A4402F5306223F0FF5380
:104C200023F4C0131361BB689B69002B26D1BB69B9
:104C30005A01FB69134403F530631A69BB68DB68EA
:104C4000C3F31203B9694801F969014401F5306100
:104C500013430B61BB695A01FB69134403F53063CD
:104C60001B69BA695101FA690A4402F5306243F4DA
:104C7000002313613AE000BF0000F81FBB689A6987
:104C8000BB68DB6813445A1EBB68DB68B2FBF3F3F6
:104C9000FB82BB68DB68FA8A03FB02F2BB68DA615D
:104CA000BB695A01FB69134403F530631A69FB8A37
:104CB000D904384B0B40B9694801F969014401F541
:104CC000306113430B61BB695A01FB69134403F55F
:104CD00030631A69BB68DB69C3F31203B969480121
:104CE000F969014401F5306113430B61FB79012B34
:104CF0000DD1BB681B69002B09D0BB681969BB6962
:104D00005A01FB69134403F530630A465A61BB68D4
:104D10001B79012B28D1FB6903F500639B6803F421
:104D20008073002B10D1BB695A01FB69134403F552
:104D300030631B68BA695101FA690A4402F53062AE
:104D400043F0005313600FE0BB695A01FB69134441
:104D500003F530631B68BA695101FA690A4402F528
:104D6000306243F080531360BB695A01FB691344FE
:104D700003F530631B68BA695101FA690A4402F508
:104D8000306243F004431360002318462037BD46C9
:104D900080BD00BF0000F81F80B487B000AFF8608E
:104DA000B9601346FB71FB687B61BB681B783B6194
:104DB000BB685B78012B40F0CE80BB689B69002B01
:104DC00032D13B695A017B69134403F510631B69B7
:104DD0003A6951017A690A4402F5106223F0FF53DF
:104DE00023F4C01313613B695A017B69134403F533
:104DF00010631B693A6951017A690A4402F510622D
:104E000043F4002313613B695A017B69134403F5A2
:104E100010631B693A6951017A690A4402F510620C
:104E2000DB0CDB0413614EE03B695A017B691344E0
:104E300003F510631B693A6951017A690A4402F566
:104E40001062DB0CDB0413613B695A017B6913447C
:104E500003F510631B693A6951017A690A4402F546
:104E6000106223F0FF5323F4C0131361BB689A69E7
:104E7000BB68DB689A4203D9BB68DA68BB689A6191
:104E80003B695A017B69134403F510631B693A6956
:104E900051017A690A4402F5106243F40023136158
:104EA0003B695A017B69134403F510631A69BB68B7
:104EB0009B69C3F31203396948017969014401F51B
:104EC000106113430B61FB79012B1ED1BB685B6939
:104ED000002B09D03B695A017B69134403F5106329
:104EE0001A46BB685B6953613B695A017B6913448D
:104EF00003F510631B683A6951017A690A4402F5A7
:104F0000106243F00443136097E03B695A017B69E8
:104F1000134403F510631B683A6951017A690A4426
:104F200002F5106243F004431360BB689B69002BD9
:104F300000F083807B6903F500635A6BBB681B78C4
:104F400003F00F03012101FA03F3796901F5006110
:104F500013434B6371E03B695A017B69134403F5CA
:104F600030631B693A6951017A690A4402F530627B
:104F7000DB0CDB0413613B695A017B69134403F5C5
:104F800030631B693A6951017A690A4402F530625B
:104F900023F0FF5323F4C0131361BB689B69002BFC
:104FA00003D0BB68DA68BB689A61BB68DA68BB6823
:104FB000DA613B695A017B69134403F530631B696D
:104FC0003A6951017A690A4402F5306243F40023D8
:104FD00013613B695A017B69134403F530631A6915
:104FE000BB68DB69C3F3120339694801796901447D
:104FF00001F5306113430B61FB79012B0DD1BB68C7
:105000001B69002B09D0BB6819693B695A017B6990
:10501000134403F530630A465A613B695A017B69C0
:10502000134403F530631B683A6951017A690A44F5
:1050300002F5306243F004431360002318461C3726
:10504000BD465DF8047B704780B487B000AF7860E0
:1050500039600023FB600023FB757B683B613B6884
:105060005B78012B4AD13B681B785A013B6913449A
:1050700003F510631B6803F00043B3F1004F40F0E9
:1050800086803B681B785A013B69134403F5106323
:105090001B683A68127851013A690A4402F51062B5
:1050A00043F0006313603B681B785A013B6913446B
:1050B00003F510631B683A68127851013A690A4493
:1050C00002F5106243F080431360FB680133FB601C
:1050D000FB6842F21072934202D90123FB7556E03D
:1050E0003B681B785A013B69134403F510631B6846
:1050F00003F00043B3F1004FE7D048E03B681B7872
:105100005A013B69134403F530631B6803F0004305
:10511000B3F1004F3BD13B681B785A013B69134404
:1051200003F530631B683A68127851013A690A4402
:1051300002F5306243F0006313603B681B785A014C
:105140003B69134403F530631B683A6812785101D8
:105150003A690A4402F5306243F080431360FB6809
:105160000133FB60FB6842F21072934202D90123C3
:10517000FB750CE03B681B785A013B69134403F54F
:1051800030631B6803F00043B3F1004FE7D0FB7DB1
:1051900018461C37BD465DF8047B704780B489B063
:1051A00000AFF860B96011461A460B46FB71134612
:1051B000BB80FB687B61BB68FB6197F82830002BE4
:1051C00023D1BB8803339B083B610023BB6118E0FC
:1051D000FB791A037B69134403F580531A46FB6974
:1051E0001B681360FB690133FB61FB690133FB61E1
:1051F000FB690133FB61FB690133FB61BB6901336F
:10520000BB61BA693B699A42E2D30023184624374E
:10521000BD465DF8047B704780B48BB000AFF8608A
:10522000B9601346FB80FB68BB61BB687B62FB888F
:105230009B089BB27B61FB8803F00303FB83002385
:105240003B6214E0BB6903F580531A687B6A1A60FD
:105250007B6A01337B627B6A01337B627B6A013349
:105260007B627B6A01337B623B6A01333B623A6A51
:105270007B699A42E6D3FB8B002B1ED000233B6256
:10528000BB6903F580531A4607F1100312681A60D0
:105290003A693B6ADBB2DB0022FA03F3DAB27B6ADB
:1052A0001A703B6A01333B627B6A01337B62FB8B82
:1052B000013BFB83FB8B002BEAD17B6A18462C3722
:1052C000BD465DF8047B704780B485B000AF786060
:1052D00039607B68FB603B681B78BB603B685B7830
:1052E000012B2CD1BB685A01FB68134403F51063F2
:1052F0001B68002B12DBBB68002B0FD0BB685A0168
:10530000FB68134403F510631B68BA685101FA681F
:105310000A4402F5106223F080431360BB685A010F
:10532000FB68134403F510631B68BA685101FA68FF
:105330000A4402F5106243F4001313602BE0BB68CB
:105340005A01FB68134403F530631B68002B12DB22
:10535000BB68002B0FD0BB685A01FB68134403F5F0
:1053600030631B68BA685101FA680A4402F530627A
:1053700023F080431360BB685A01FB68134403F5B4
:1053800030631B68BA685101FA680A4402F530625A
:1053900043F400131360002318461437BD465DF82C
:1053A000047B704780B485B000AF786039607B685B
:1053B000FB603B681B78BB603B685B78012B28D1A6
:1053C000BB685A01FB68134403F510631B68BA6895
:1053D0005101FA680A4402F5106223F400131360C5
:1053E0003B681B79032B03D03B681B79022B38D118
:1053F000BB685A01FB68134403F510631B68BA6865
:105400005101FA680A4402F5106243F080531360B8
:1054100027E0BB685A01FB68134403F530631B683F
:10542000BA685101FA680A4402F5306223F40013A5
:1054300013603B681B79032B03D03B681B79022B5D
:105440000FD1BB685A01FB68134403F530631B6836
:10545000BA685101FA680A4402F5306243F0805399
:105460001360002318461437BD465DF8047B70476F
:1054700080B485B000AF78600B46FB707B68FB6042
:10548000FB6803F500631B68FA6802F5006223F409
:10549000FE631360FB6803F500631A68FB781B0169
:1054A00003F4FE63F96801F5006113430B60002308
:1054B00018461437BD465DF8047B704780B485B04C
:1054C00000AF78607B68FB60FB6803F560631B6876
:1054D000FA6802F5606223F003031360FB6803F5CA
:1054E00000635B68FA6802F5006223F00203536010
:1054F000002318461437BD465DF8047B704780B41E
:1055000085B000AF78607B68FB60FB6803F5606383
:105510001B68FA6802F5606223F003031360FB68FE
:1055200003F500635B68FA6802F5006243F002036A
:105530005360002318461437BD465DF8047B70475E
:1055400080B485B000AF78607B685B69FB607B6886
:105550009B69FA681340FB60FB6818461437BD4628
:105560005DF8047B704780B485B000AF78607B68DD
:10557000FB60FB6803F500639B69BB60FB6803F598
:105580000063DB69BA681340BB60BB681B0C18463C
:105590001437BD465DF8047B704780B485B000AF1A
:1055A00078607B68FB60FB6803F500639B69BB6008
:1055B000FB6803F50063DB69BA681340BB60BB6836
:1055C0009BB218461437BD465DF8047B704780B423
:1055D00085B000AF78600B46FB707B68FB60FB78A2
:1055E0005A01FB68134403F530639B68BB60FB689A
:1055F00003F500635B69BA681340BB60BB6818467B
:105600001437BD465DF8047B704780B487B000AFA7
:1056100078600B46FB707B687B617B6903F50063F8
:105620001B693B617B6903F500635B6BFB60FB7887
:1056300003F00F03FA6822FA03F3DB01DBB23A69E5
:1056400013433B61FB785A017B69134403F51063F4
:105650009B683A691340BB60BB6818461C37BD465F
:105660005DF8047B704780B483B000AF78607B68DE
:105670005B6903F0010318460C37BD465DF8047BF7
:10568000704780B485B000AF78607B68FB60FB68D2
:1056900003F510631B68FA6802F5106223F4FF63D8
:1056A00023F007031360FB6803F500635B68FA6887
:1056B00002F5006243F480735360002318461437E8
:1056C000BD465DF8047B704780B487B000AFF860DA
:1056D0000B467A60FB72FB687B61FB683C330433EA
:1056E0001B683B613B69264A93420AD97B6903F5F3
:1056F00030631B6803F00043B3F1004F01D1002376
:1057000037E07B6903F530631A46002313617B6938
:1057100003F530631B697A6902F5306243F40023B4
:1057200013617B6903F530631B697A6902F53062A6
:1057300043F0180313617B6903F530631B697A69D1
:1057400002F5306243F0C0431361FB7A012B0FD1A5
:105750007B6903F530631A467B6853617B6903F507
:1057600030631B687A6902F5306243F0802313606E
:10577000002318461C37BD465DF8047B704700BF08
:105780000A30544F80B485B000AF78600023FB60CE
:10579000FB680133FB60FB68134A934201D9032382
:1057A0001BE07B681B69002BF2DA0023FB607B683F
:1057B0001B6943F001027B681A61FB680133FB60DF
:1057C000FB68094A934201D9032306E07B681B6901
:1057D00003F00103012BF0D0002318461437BD4617
:1057E0005DF8047B704700BF400D030080B586B0B4
:1057F00000AF78607B68002B01D1012367E27B68F2
:105800001B6803F00103002B75D0884B9B6803F0E5
:105810000C03042B0CD0854B9B6803F00C03082B66
:1058200012D1824B5B6803F48003B3F5800F0BD178
:105830007E4B1B6803F40033002B5BD07B685B68F6
:10584000002B57D1012342E27B685B68B3F5803FB0
:1058500006D1764B1B68754A43F4803313601DE014
:105860007B685B68B3F5A02F0CD1704B1B686F4A47
:1058700043F4802313606D4B1B686C4A43F4803300
:1058800013600BE0694B1B68684A23F48033136094
:10589000664B1B68654A23F4802313607B685B6852
:1058A000002B13D001F0FEFA386108E001F0FAFA9B
:1058B00002463B69D31A642B01D9032307E25B4BF1
:1058C0001B6803F40033002BF0D014E001F0EAFA77
:1058D000386108E001F0E6FA02463B69D31A642B0E
:1058E00001D90323F3E1514B1B6803F40033002B70
:1058F000F0D100E000BF7B681B6803F00203002BBF
:1059000063D04A4B9B6803F00C03002B0BD0474B32
:105910009B6803F00C03082B1CD1444B5B6803F419
:105920008003002B16D1414B1B6803F00203002BB0
:1059300005D07B68DB68012B01D00123C7E13B4B1D
:105940001B6823F0F8027B681B69DB0037491343AF
:105950000B603AE07B68DB68002B20D0344B0122DF
:105960001A6001F09FFA386108E001F09BFA0246E4
:105970003B69D31A022B01D90323A8E12B4B1B68E7
:1059800003F00203002BF0D0284B1B6823F0F80231
:105990007B681B69DB00254913430B6015E0244B32
:1059A00000221A6001F07EFA386108E001F07AFA0C
:1059B00002463B69D31A022B01D9032387E11B4B13
:1059C0001B6803F00203002BF0D17B681B6803F017
:1059D0000803002B36D07B685B69002B16D0154B73
:1059E00001221A6001F05EFA386108E001F05AFA0B
:1059F00002463B69D31A022B01D9032367E10B4B03
:105A00005B6F03F00203002BF0D01BE0094B002278
:105A10001A6001F047FA38610EE001F043FA0246DD
:105A20003B69D31A022B07D9032350E10038024007
:105A300000004742800E4742884B5B6F03F0020331
:105A4000002BEAD17B681B6803F00403002B00F0F5
:105A500097800023FB75814B1B6C03F08053002B58
:105A60000FD10023BB607D4B1B6C7C4A43F08053FD
:105A700013647A4B1B6C03F08053BB60BB6801233B
:105A8000FB75774B1B6803F48073002B18D1744BA4
:105A90001B68734A43F48073136001F003FA3861A2
:105AA00008E001F0FFF902463B69D31A022B01D945
:105AB00003230CE16A4B1B6803F48073002BF0D0C6
:105AC0007B689B68012B06D1644B1B6F634A43F0D4
:105AD000010313671CE07B689B68052B0CD15F4BAF
